:020000040800F2
:100000000050002021020008270200082B020008EF
:100010009D020008A1020008E9020008000000009B
:100020000000000000000000000000003103000894
:100030003503000800000000390300083D030008F4
:100040004D0300084D0300084D0300084D03000850
:100050004D0300084D0300084D0300084D03000840
:100060004D0300084D0300084D0300084D03000830
:100070004D0300084D0300084D0300084D03000820
:100080004D0300084D0300084D0300084D03000810
:100090004D0300084D0300084D0300084D03000800
:1000A0004D0300084D0300084D0300084D030008F0
:1000B0004D0300084D0300084D0300084D030008E0
:1000C0004D0300084D0300084D0300084D030008D0
:1000D0004D0300084D0300084D0300084D030008C0
:1000E0004D0300084D0300084D0300080000000008
:1000F0000000000000000000000000000000000000
:1001000000000000000000005FF808F100B583B0B7
:1001100000F0ACF9304B314A1360314A1360314B77
:10012000314A03E052F8041B43F8041B2F498B4269
:10013000F8D32A4B1A682E4B9A4200D0FEE7284B80
:100140001A682C4B9A42F9D1234B2B4A13602B4A45
:1001500013602B4B02E0002243F8042B294A934200
:10016000F9D3254B1B6813B9244B1B6803B1FEE779
:1001700000F088F9694601A800F022F9224C234BCF
:10018000E41AA410002504E0204B53F825309847CA
:100190000135AC42F8DC1E4C1E4BE41AA4100025BD
:1001A00004E01C4B53F8253098470135AC42F8DC8D
:1001B0000099019800F03AFD0546174C174BE41AD8
:1001C000A41004E0013C154B53F824309847002C50
:1001D000F8DC284600F0D0F8BABADECA00000020E9
:1001E00094000020000000208016000898000020E5
:1001F0007856341232547698980000203C01002042
:1002000098000020400100207803000878030008CF
:1002100078030008780300087803000878030008D2
:1002200008B5FFF773FF00BEFEE71EF0040F0CBF1A
:10023000EFF30880EFF309807146414A10472DE93A
:10024000F04182B004468846124B5E6B9F6B9D6AFC
:100250001B6B13F0020F03D00E4BDB6A002B0CDB81
:100260000D4800F0B5F8CDF800803B4632462946EF
:10027000204600F00BF900BEFEE74BF6AB6100F044
:100280007FF90028ECD0034B4FF00042DA6202B055
:10029000BDE8F08100ED00E01016000800BEFEE7AA
:1002A0001EF0040F0CBFEFF30880EFF309807146D6
:1002B000244A10472DE9F04182B004468846084B95
:1002C0005E6B9F6B9D6A074800F082F8CDF8008056
:1002D0003B4632462946204600F0D8F800BEFEE7ED
:1002E00000ED00E0201600081EF0040F0CBFEFF335
:1002F0000880EFF309807146134A10472DE9F04159
:1003000082B004468846084B5E6B9F6B9D6A074827
:1003100000F05EF8CDF800803B4632462946204684
:1003200000F0B4F800BEFEE700ED00E02C16000877
:1003300000BEFEE700BEFEE700BEFEE7704700001D
:100340003F020008B5020008FD02000800BEFEE7FB
:100350008016000800000020980000208016000889
:100360000000000000000000980000204001002074
:08037000000000000000000085
:10037800FEE7000008B503460C4A12685AB10B4A5A
:100388001068033323F003030344094A934206D851
:10039800064A136008BD054A06491160EFE700F0F8
:1003A8005DFC0C2303604FF0FF30F3E79C00002056
:1003B800004C00204001002001230360014B0B602A
:1003C800704700BF040000200FB400B583B004AB31
:1003D80053F8042B01938021074800F071FC002892
:1003E80004DC03B05DF804EB04B070470146024832
:1003F80000F034F8F5E700BFA40000202DE9F04331
:1004080085B004460F46435633BB0425284621468B
:10041800ABBE0446384605B0BDE8F08304AA1344D1
:10042800002203F8102C4FF00408E94640464946DC
:10043800ABBE8046761B002EECD03546102E28BF6A
:1004480010250023AB42E9D214F9011B04AA1A446F
:1004580002F8101C0133F5E70E46ECE708B5FFF784
:10046800CDFF08BD08B500F0FDF8024A024B9A60BE
:1004780008BD00BF0000000800ED00E008B500F06E
:1004880019F908BDF8B504460D4617461E46274813
:10049800FFF79AFF21682648FFF796FF616825480D
:1004A800FFF792FFA1682448FFF78EFFE168234811
:1004B800FFF78AFF21692248FFF786FF6169214813
:1004C800FFF782FFA1692048FFF77EFFE1691F4817
:1004D800FFF77AFF1E48FFF777FF29461D48FFF709
:1004E80073FF1D4CE16A1D48FFF76EFF216B1C4826
:1004F800FFF76AFFE16B1B48FFF766FF15F0800FF7
:100508000AD115F4004F0CD11748FFF75DFF069983
:100518001648FFF759FFF8BD39461548FFF754FF4D
:10052800EFE731461348FFF74FFFEDE7F4140008F3
:1005380004150008141500082415000834150008CF
:1005480044150008541500086415000874150008BF
:10055800841500089015000800ED00E0A0150008BB
:10056800B0150008C0150008F0150008F8150008B7
:10057800D0150008E015000883691A888A4201D05E
:10058800002070470268033A012A01D90020704709
:10059800023383610120704782B0002301930093E6
:1005A8002C4A136843F4803313602A4B1B6803F406
:1005B80000330093019B01330193009B1BB9019BFE
:1005C800B3F5A06FF1D1234B1B6813F4003F06D09D
:1005D80001230093009B012B04D002B07047002335
:1005E8000093F7E71C4B1A6842F010021A601A6869
:1005F80022F003021A601A6842F002021A60A3F598
:1006080080535A685A605A685A605A6842F480623D
:100618005A605A6822F47C125A605A6842F4E81206
:100628005A601A6842F080721A600A4B1B6813F00D
:10063800007FFAD0074B5A6822F003025A605A68C2
:1006480042F002025A60034B5B6803F00C03082B6C
:10065800F9D1C2E7001002400020024008B5FFF7B8
:100668009BFF08BD08B5104B1A6842F001021A60DA
:1006780059680E4A0A405A601A6822F0847222F4B5
:1006880080321A601A6822F480221A605A6822F4AA
:10069800FE025A604FF41F029A60FFF7DFFF044B17
:1006A8004FF000629A6008BD001002400000FFF899
:1006B80000ED00E01F4B5B6803F00C03042B15D022
:1006C800082B17D01BB11C4B1C4A1A6002E01A4BAE
:1006D8001A4A1A60174B5B68C3F30313184AD35CB2
:1006E800DAB215490B68D3400B607047124B134AB6
:1006F8001A60EFE70F4A53685268C3F38343023323
:1007080012F4803F05D10F4A02FB03F30A4A136033
:10071800E0E7084A526812F4003F05D0094A02FB94
:1007280003F3054A1360D5E7044A02FB03F3024AC0
:100738001360CFE7001002401C00002000127A006E
:100748000C00002000093D00F0B4020900F00F037E
:100758000C46F9B104291DD008291BD00C2919D041
:10076800012917D0052915D0092913D00D2911D031
:1007780002290FD006290DD00A290BD00E2909D03D
:10078800032907D0072905D00B2903D00F2901D049
:10079800002014E0082C14D00C2C1DD010F0080FE9
:1007A80027D11D4951F8220002689B000F2199406A
:1007B80022EA010204FA03F31A4302600120F0BCA2
:1007C8007047154951F82260F16800F00705134F8A
:1007D8007D572943F160E1E70F4951F82250E96854
:1007E80000F007040D4E345721EA0401E96008249B
:1007F800D4E7A3F10801C9B2074B53F822004268B5
:1008080089000F238B4022EA030204FA01F1114305
:1008180041600120D3E700BF200000203C160008FB
:10082800030900F00F02012901D90020704709D0FF
:100838000A4951F823100B690948825613430B6182
:1008480001207047054A52F82320136900F0070079
:10085800034909560B43136101207047200000200B
:100868003C16000810B5044600210A20FFF7D8FFFF
:1008780000210920FFF7D4FF64B204F00101002031
:10088800FFF7CEFF04F002010120FFF7C9FF04F0D3
:1008980004010220FFF7C4FF04F008010320FFF75A
:1008A800BFFF04F010010020FFF7BAFF04F0200199
:1008B8000120FFF7B5FF04F040010220FFF7B0FF69
:1008C80004F080010320FFF7ABFF01210A20FFF7A6
:1008D800A7FF022000F062F800210A20FFF7A0FF1E
:1008E8000446052000F05AF8204610BD10B504460D
:1008F80000210820FFF794FF2046FFF7B3FF10BD43
:1009080010B5044601210820FFF78AFF2046FFF7AB
:10091800A9FF10BD08B5282000F040F83820FFF7DF
:10092800E5FF022000F03AF80E20FFF7DFFF022073
:1009380000F034F80120FFF7D9FF022000F02EF86C
:1009480008BD0F2926D838B50546012A01D9002047
:1009580038BD08B39201D2B2541864F07F04E4B2EF
:100968002046FFF7C3FF03E0C020FFF7BFFFC02406
:10097800287868B10135FFF7C3FF0134E4B2902C41
:10098800F2D0D02CF4D18020FFF7B0FF8024EFE71D
:100998000120DDE7002070470020D9E7002200E0B1
:1009A8000132904208D90023CF2BF9D800BF00BFED
:1009B80000BF00BF0133F7E770470000074B1B6813
:1009C80043F0010313F0020FFCD023F00103034AA4
:1009D8001360536803F058035360704700100240D7
:1009E8000138222800F21A81DFE810F023002A00DB
:1009F800310038003F0046004D0054005B006200A3
:100A08006900700077007E0085008C0093009A00D2
:100A1800A100A800AF00B600BD00C400CB00D20002
:100A2800D900E000E700EE00F500FC0003010A0130
:100A380011017B4A936943F4804393610120704715
:100A4800774A936943F48053936101207047744A4D
:100A5800936943F40063936101207047704A936976
:100A680043F480639361012070476D4A936943F4AE
:100A78000073936101207047694A936943F020032A
:100A8800936101207047664A936943F010039361AC
:100A980001207047624A936943F00803936101207B
:100AA80070475F4A936943F00403936101207047DC
:100AB8005B4A936943F00103936101207047584AE8
:100AC800D36943F00053D36101207047544AD36976
:100AD80043F08053D36101207047514AD36943F0F2
:100AE8000063D361012070474D4AD36943F08063A6
:100AF800D361012070474A4AD36943F00073D36138
:100B080001207047464AD36943F48003D36101202A
:100B18007047434AD36943F40013D36101207047F7
:100B28003F4AD36943F48013D361012070473C4A9C
:100B3800D36943F40023D36101207047384AD3694D
:100B480043F48023D36101207047354AD36943F4C5
:100B58000033D36101207047314AD36943F400431D
:100B6800D361012070472E4AD36943F48043D3618F
:100B7800012070472A4AD36943F40063D3610120F6
:100B88007047274AD36943F02003D3610120704797
:100B9800234AD36943F01003D36101207047204AE8
:100BA800D36943F00803D361012070471C4AD36915
:100BB80043F00403D36101207047194AD36943F015
:100BC8000203D36101207047154AD36943F001033A
:100BD800D36101207047124A536943F4805353612B
:100BE800012070470E4A536943F0400353610120C6
:100BF80070470B4A536943F004035361012070475F
:100C0800074A536943F00203536101207047044ABD
:100C1800536943F001035361012070470020704776
:100C28000010024008B5FFF7C9FE0920FFF7D8FEFB
:100C38000720FFF7D5FE02210020FFF785FD0221DE
:100C48002020FFF781FDFFF765FE002211460248CC
:100C5800FFF777FEF9E700BF44160008014B186854
:100C6800704700BF3000002030B5141E05469BB009
:100C7800184605DA8B234FF0FF302B601BB030BDD0
:100C88004FF40273ADF80C300CBF234604F1FF3368
:100C9800029305934FF6FF7300910491ADF80E305F
:100CA80002461E9B6946284600F074F8431CBCBFE8
:100CB8008B232B60002CE1D00022009B1A70DDE70B
:100CC80007B5009313460A46014603480068FFF734
:100CD800CBFF03B05DF804FB300000202DE9F0479E
:100CE8008E6882469E420C469146984638D8B1F89E
:100CF8000CC01CF4906F31D062692568096902EB59
:100D080042026F1A02EBD272013355103B449D42E6
:100D180038BF1D461CF4806F30D0294600F040FBD8
:100D2800064650B90C234FF0FF30CAF80030A389AB
:100D380043F04003A381BDE8F0873A46216900F0FB
:100D4800BBFAA38923F4906343F08003A38126614F
:100D58003E44266046466561ED1BA560464500D9C0
:100D6800464632464946206800F0B4FAA368002097
:100D78009B1BA36023681E442660DCE72A4600F01C
:100D880069FB06460028E2D12169504600F0BCFA0A
:100D9800C8E700002DE9F04F1E468B899DB01B0661
:100DA80007460D4614460ED50B6963B9402100F07D
:100DB800F7FA2860286120B90C233B604FF0FF3018
:100DC800C9E040236B610023099320238DF8293063
:100DD80030234FF0010ADFF898918DF82A300396F6
:100DE80023461E4613F8012B0AB1252AF9D1B6EB82
:100DF800040B0BD05B46224629463846FFF76EFFA8
:100E0800013000F0A380099B5B4409933378002BE1
:100E180000F09C8000234FF0FF32CDE90523013616
:100E2800049307938DF853301A933446052214F827
:100E3800011B4F4800F032FA049BC0B9D90644BFE1
:100E480020228DF853201A0744BF2B228DF85320F7
:100E580032782A2A13D0344600200A26079A2146D7
:100E680011F8013B303B092B4BD970B914E0A0EBCA
:100E780009000AFA00F0184304902646D5E7039AB9
:100E8800111D12680391002A01DB079204E0524207
:100E980043F002030792049323782E2B0CD1637836
:100EA8002A2B33D1039B02341A1D1B680392002B93
:100EB800B8BF4FF0FF3305932E4E032221783046FA
:100EC80000F0ECF938B14023801B03FA00F0049BD2
:100ED80001340343049314F8011B062226488DF8B5
:100EE800281000F0DBF9002838D0244B13BB039BF3
:100EF800073323F0070308330393099B43440993FB
:100F08006EE706FB023201200C46A8E700230A26FA
:100F1800194601340593204610F8012B303A092A66
:100F280003D9002BC8D00591C6E706FB0121012390
:100F38000446F0E703AB00932A46114B04A9384650
:100F4800AFF30080B0F1FF3F8046D6D1AB895B0696
:100F58003FF534AF09981DB0BDE8F08F03AB00939F
:100F68002A46074B04A9384600F082F8EAE700BF92
:100F78004C1600085216000856160008000000001B
:100F8800E50C00082DE9F04791461F468A680B6971
:100F980006469342B8BF1346C9F8003091F843207B
:100FA8000C46DDF8208012B10133C9F800302368FF
:100FB800990642BFD9F800300233C9F800302568D5
:100FC80015F0060507D104F1190AE368D9F80020DD
:100FD8009B1AAB4229DC94F843302268003318BFCF
:100FE800012392062ED404F1430239463046C04705
:100FF800013021D02368E56803F00603042B18BFED
:101008000025D9F800204FF0000908BFAD1AA368E1
:10101800226908BF25EAE5759342C4BF9B1AED18FB
:101028001A344D451AD1002008E0012352463946AA
:101038003046C047013003D14FF0FF30BDE8F0879C
:101048000135C2E73020E11881F843005A1C94F8B2
:1010580045102244023382F84310C4E70123224694
:1010680039463046C0470130E6D009F10109D8E7D2
:101078002DE9F04306460C4601F14300097E85B090
:101088006E29984617460C9B00F0BB8024D863292C
:1010980039D00AD8002900F0C480582900F092807D
:1010A80004F1420584F8421035E0642901D0692929
:1010B800F6D125681A6815F0800F02F104012CD0CA
:1010C80012681960002A03DA2D23524284F843304B
:1010D800DFF8C0C10A233FE0732900F0A68008D8D2
:1010E8006F2921D07029DBD1226842F020022260CA
:1010F80003E0752918D07829D2D17822DFF898C171
:1011080084F8452062E01A6804F14205111D19604F
:10111800136884F84230012394E0126815F0400FF8
:10112800196018BF12B2CDE7D4F800C01A681CF0D5
:10113800800F02F104051D6001D0126803E01CF065
:10114800400FFAD012886F290CBF08230A23DFF852
:1011580044C1002184F843106568002DA8BF2168A8
:10116800A560A4BF21F0040121600AB9002D46D072
:101178000546B2FBF3F103FB112E1CF80EE0934277
:1011880005F801ED39D9082B0BD12368DA0708D502
:10119800236962689A42DEBF302305F8013C05F1F5
:1011A800FF35401B2061CDF800803B4603AA21464D
:1011B8003046FFF7E7FE013049D14FF0FF3005B068
:1011C800BDE8F083DFF8CCC084F845101D682168BD
:1011D80055F8042B1D600D060BD5CD0744BF41F013
:1011E800200121601AB9236823F02003236010230B
:1011F800AFE74B0648BF92B2EFE70A46B9E70546A4
:10120800C1E71A68D4F800C0151D61691CF0800F89
:101218001D60136801D0196003E01CF0400FFAD07C
:101228001980002305462361BDE71A68111D19605E
:10123800156800216268284600F030F808B1401BA4
:10124800606063682361002384F84330ABE7236957
:101258002A4639463046C0470130AED023689B073E
:1012680013D4E068039B9842B8BF1846A7E7012348
:101278004A4639463046C04701309ED00135E368BA
:10128800039A9B1AAB42F2DCEBE7002504F119093B
:10129800F5E700BF5D1600086E16000810B5C9B264
:1012A80002449042034601D1002303E01C78013038
:1012B8008C42F6D1184610BD0A44914200F1FF3322
:1012C80000D1704710B511F8014B914203F8014F56
:1012D800F9D110BD884210B501EB020302D983424F
:1012E8001C4607D8421E994208D011F8014B02F853
:1012F800014FF8E783189A1A9A4200D110BD14F8E2
:10130800011D03F8011DF7E738B50546002943D04C
:1013180051F8043C0C1F002BB8BFE41800F0D0F8BB
:101328001E4A1368104633B9636014602846BDE846
:10133800384000F0CBB8A3420BD921686218934219
:1013480001BF1A685B685218226063600460EDE7A9
:1013580013465A680AB1A242FAD919685818A04225
:101368000BD120680144581882421960DED11068F8
:101378005268014419605A60D8E702D90C232B60DF
:10138800D4E7206821188A4201BF116852680918F9
:10139800216062605C60C9E738BD00BF240100209D
:1013A800F8B5CD1C25F0030508350C2D38BF0C25E4
:1013B800002D064601DBA94203D90C233360002027
:1013C800F8BD00F07DF821490A6814469CB9204F01
:1013D8003B6823B92146304600F062F83860294658
:1013E800304600F05DF8431C23D10C2330463360AF
:1013F80000F06CF8E3E723685B1B17D40B2B03D9C9
:1014080023601C44256004E06368A2420CBF0B60A3
:101418005360304600F05AF804F10B00231D20F009
:101428000700C21ACCD01B1AA350C9E72246646829
:10143800CCE7C41C24F00304A042E3D0211A3046B0
:1014480000F02EF80130DDD1CFE700BF24010020E5
:1014580028010020F8B5074614460E4621B9114662
:10146800BDE8F840FFF79CBF22B9FFF74DFF2546BE
:101478002846F8BD00F030F8A0420FD22146384681
:10148800FFF78EFF05460028F2D031462246FFF7C7
:1014980013FF31463846FFF737FFE9E73546E7E7F8
:1014A80038B50023054C054608462360FEF762FF61
:1014B800431C02D1236803B12B6038BD2C010020E6
:1014C800014800F011B800BF34010020014800F0C5
:1014D8000CB800BF3401002051F8043C181F002B41
:1014E800BCBF0B58C018704770477047537461638E
:1014F8006B206672616D653A0A0000002052302048
:101508003D2020253038580A0000000020523120A4
:101518003D2020253038580A000000002052322093
:101528003D2020253038580A000000002052332082
:101538003D2020253038580A000000002052313262
:10154800203D20253038580A00000000204C522049
:101558003D2020253038580A000000002050432044
:101568003D2020253038580A0000000020505352F2
:10157800203D20253038580A000000004653522FDD
:101588004641523A0A0000002043465352203D206B
:1015980020253038580A00002048465352203D2064
:1015A80020253038580A00002044465352203D2058
:1015B80020253038580A00002041465352203D204B
:1015C80020253038580A0000204D4D464152203D14
:1015D80020253038580A00002042464152203D203C
:1015E80020253038580A00004D6973630A0000004E
:1015F800204C522F4558435F52455455524E3D207A
:10160800253038580A0000005B48617264466175ED
:101618006C745D0A000000005B4275734661756C6E
:10162800745D0A005B55736167654661756C745D2E
:101638000A000000010204081020408069736C61F0
:101648006D000000232D302B2000686C4C0065666F
:1016580067454647003031323334353637383941FB
:101668004243444546003031323334353637383911
:071678006162636465660016
:1016800078563412A0000020000000000000000086
:1016900000000000010203040607080900A24A0432
:1016A00000080140000C01400010014000140140FE
:1016B00034000020000000000000000000000000D6
:1016C000000000000000000000000000000000001A
:1016D000000000000000000000000000000000000A
:1016E00000000000000000000000000000000000FA
:1016F00000000000000000000000000000000000EA
:1017000000000000000000000000000000000000D9
:0817100000000000325476983D
:040000050800010DE1
:00000001FF
